:0400000080312828FB
:100008007E1480312000911C122891100130B00715
:100018000030B13D0030B23D0030B33D911D18288D
:10002800911181310B2180312000931C1F289310DE
:100038007B08260091002000931D262893117A083A
:10004800260098007E10090080312A28D6308400C6
:10005800823085003E308600003087000A308231C9
:10006800E0228031FA01FB01203084000030850055
:100078001E308231E6227E1020008231C82A4B08C9
:100088003302031D51284A083202031D512849082A
:100098003102031D512848083002031C6528420814
:1000A800C8074308C93D4408CA3D4508CB3D01304F
:1000B800F9007908BD063D0C2200031C8D120318B7
:1000C8008D1620003908803AF90080307902031D26
:1000D8006F2801303802031CF1282000B801B9014B
:1000E800CE288231EC228031F12822008C10F128B0
:1000F80022008C14F1282908F9007908FB0028004F
:1001080017117B0A031D7B08031D8F28F03026007A
:1001180093057B08AF287B08260091001308F03967
:100128000C389300280095011715F12822000C11AE
:10013800F12822000C15F1282908F9007908FA009D
:1001480028001E117A0A031D7A08031DB728F0300B
:1001580026009A057A080319B42822008C15F1287C
:1001680022008C11F1287A08260098001A08F03924
:100178000C389A0028009C011E15F12822000C1347
:10018800F12822000C17F12822008C13F1282200F4
:100198008C17F12828080F3A031975281F3A0319F4
:1001A8007928013A03197C28033A03197F28323A3F
:1001B80003199A28013A03199D28033A0319A0281C
:1001C800123A0319C228013A0319C528033A031938
:1001D800C828013A0319CB28F128813193218031AD
:1001E800823183228031720873040319FE28CC01FE
:1001F800CD0108000330F9009830890B0129F90B6B
:10020800012901302000CC000030CD000800240076
:10021800141E462920003708803AF000803070020A
:10022800031D1829013036020318382946290030E1
:10023800A7000030A6000030A5000F3031293A0889
:10024800A4003B08A500A601A70144293308A7007C
:100258003208A6003108A5003008A4004429370850
:10026800B9003608B800442920002808003A0319C4
:100278001B29013A03192329033A03192A29332987
:10028800B401B501240014197029941A50291108D1
:100298002000B601B7019029141C90291108F0001C
:1002A8007008F10020003708803AF00080307002B2
:1002B800031D602904303602031890297108F000E4
:1002C80020003608283E860087017008810001302A
:1002D800B6070030B73D9029941A7429110890295F
:1002E80020003508803AF00080307002031D7E2916
:1002F8000430340203188E2920003408243E860076
:10030800870101082400910001302000B407003063
:10031800B53D902924009101240015160800072AEC
:100328002F083302031DA2292E083202031DA22919
:100338002D083102031DA2292C083002031C0800D5
:1003480088303007AC001330313DAD000030323D0D
:10035800AE000030333DAF00BC01BC0A08002200EB
:100368001708FC390238970097170230F200720814
:100378002000BC0008002200171F08000D102100F3
:100388009E1703309E041E111E088F3910389E00D8
:1003980083309D051D140330F20072082000BC0054
:1003A800080021009D140430F20072082000BC00EF
:1003B800080021009D1808001C082000BB0021002F
:1003C8001B082000BA0002303B02583003193A02D9
:1003D8000318F229C830F3000030F529F430F3008F
:1003E8000130F4007308C2007408C300890D893B0A
:1003F8008909C400C50021001D10220097130D149F
:100408002000BC01080020003C08003A0319942988
:10041800013A0319B329033A0319BF29013A031909
:10042800D529073A0319DD29FF2908007230210070
:100438009900013023008C008D0120008C018D0172
:10044800213021008C00DA308D0022000D150D14AA
:1004580020001C08FC3902389C007C309B009A0163
:1004680091102100911420001C1528001708FC3950
:1004780002389700FF309600950120009310210064
:10048800931428001E08FC3902389E00FF309D0096
:100498009C012000931121009315903025009E00A7
:1004A8001E3024009200C030940036309500161497
:1004B8001717971297101710110820009111210093
:1004C80091150B178B1700302000B3000030B200D5
:1004D8000030B1000030B0000030CB000030CA005E
:1004E8000130C900F430C8000030C5000030C40035
:1004F8000130C300F430C200B801B901080020007F
:100508000D0CF400F40C740C0139F500F6017508B3
:10051800F7007608F80047087806031D952A46086C
:1005280077060319AC2A7808C7007708C600770849
:100538007804031DC52AB8303007A0000B30313DC0
:10054800A1000030323DA2000030333DA300C52A8F
:1005580077087804031DC52A23083302031DBE2A21
:1005680022083202031DBE2A21083102031DBE2AB9
:1005780020083002031CC52A0130F2000030F300C5
:100588000800F201F301080082311A228231803119
:10059800432082314C084D04031DCB2A8231EC22C2
:1005A8008231D52A8834133400340034F4340134C9
:1005B8000034003401340034FE0012001E00FE0B2B
:1005C800E12A0034640080010131890BE72A0034F4
:0805D80022008D120D11080034
:020000040001F9
:04000E00C40FFF1A02
:00000001FF
